S01A000056656869636C655F636F6D6D5F536C6176652E73726563E5
S11300000C942A000C9447000C9447000C9447006D
S11300100C9447000C9436030C9447000C9447004E
S11300200C9447000C9447000C9447000C9415035F
S11300300C94EC020C9447000C9447000C94470079
S11300400C9449000C9447000C9447000C9447000E
S11300500C94470011241FBECFE5D8E0DEBFCDBF0E
S113006010E0A0E6B0E0E6E6F8E002C005900D92EC
S1130070A036B107D9F720E0A0E6B0E001C01D9298
S1130080AA36B207E1F70E94AE020C9431040C9434
S113009000001F920F920FB60F9211242F933F93DB
S11300A04F935F936F937F938F939F93AF93BF937C
S11300B024B135B144E6429FC001439F900D112401
S11300C06FEF73E00E941D047093680060936700F3
S11300D0BF91AF919F918F917F916F915F914F915C
S11300E03F912F910F900FBE0F901F901895853060
S11300F030F4693030F4433030F490E005C091E0DE
S113010003C091E001C091E091117AC04423B9F198
S1130110413009F070C0813089F028F08230C9F094
S1130120833011F16AC08AB321E030E002C0220FAB
S1130130331F6A95E2F7282B2ABB62C087B321E0FC
S113014030E002C0220F331F6A95E2F7282B27BB49
S113015057C084B321E030E002C0220F331F6A95F8
S1130160E2F7282B24BB4CC081B321E030E002C06D
S1130170220F331F6A95E2F7282B21BB41C081303F
S113018099F028F08230E9F0833041F138C02AB385
S113019081E090E002C0880F991F6A95E2F780958C
S11301A082238ABB91E02CC027B381E090E002C097
S11301B0880F991F6A95E2F78095822387BB91E0A7
S11301C01FC024B381E090E002C0880F991F6A9594
S11301D0E2F78095822384BB91E012C021B381E0D1
S11301E090E002C0880F991F6A95E2F780958223F8
S11301F081BB91E005C091E003C091E001C091E0B2
S1130200892F0895853030F4693030F4433030F468
S113021090E005C091E003C091E001C091E091112C
S11302207AC04423B9F1413009F070C0813089F0BB
S113023028F08230C9F0833011F16AC08BB321E019
S113024030E002C0220F331F6A95E2F7282B2BBB44
S113025062C088B321E030E002C0220F331F6A95E8
S1130260E2F7282B28BB57C085B321E030E002C059
S1130270220F331F6A95E2F7282B25BB4CC082B3AB
S113028021E030E002C0220F331F6A95E2F7282BE9
S113029022BB41C0813099F028F08230E9F08330EC
S11302A041F138C02BB381E090E002C0880F991F60
S11302B06A95E2F7809582238BBB91E02CC028B32A
S11302C081E090E002C0880F991F6A95E2F780955B
S11302D0822388BB91E01FC025B381E090E002C077
S11302E0880F991F6A95E2F78095822385BB91E078
S11302F012C022B381E090E002C0880F991F6A9572
S1130300E2F78095822382BB91E005C091E003C0AF
S113031091E001C091E0892F08951F93CF93DF935B
S1130320D82F162FC92FC0650E947803811111C0E0
S11303308C2F0E949A0381110EC08D2F0E94C60338
S113034081110BC0812F0E94C603811108C0C0E037
S113035007C0C1E105C0C2E103C0C3E101C0C4E1FB
S11303600E94E0038FE39CE90197F1F700C00000CD
S11303708C2FDF91CF911F9108950F931F93CF93EB
S1130380DF931F92CDB7DEB7082F192F10650E9497
S11303907803811117C0812F0E949A03811112C022
S11303A0802F0E94C60381110DC00E948903811110
S11303B009C0812F0E94B003811104C0CE010196AF
S11303C00E94D5030E94E00389810F90DF91CF91B1
S11303D01F910F9108958FB780688FBF0895CF93B1
S11303E0C82F40E063E080E00E9402018FE99FE0B3
S11303F00197F1F700C00000C4FB442740F960E016
S113040081E00E940201C5FB442740F961E081E0DC
S11304100E940201C6FB442740F962E081E00E9489
S113042002014C2F441F4427441F64E081E00E94D2
S113043002018FE99FE00197F1F700C0000041E05D
S113044062E080E00E9402018FE99FE00197F1F7EA
S113045000C0000040E062E080E00E9402018FE9F9
S11304609FE00197F1F700C000004C2F417060E05D
S113047081E00E940201C1FB442740F961E081E070
S11304800E940201C2FB442740F962E081E00E941D
S11304900201C3FB442740F964E081E00E940201A9
S11304A08FE99FE00197F1F700C0000041E062E0AE
S11304B080E00E9402018FE99FE00197F1F700C0FC
S11304C0000040E062E080E00E9402018FE19EE4CF
S11304D00197F1F700C00000CF91089541E063E077
S11304E080E00E94770041E062E080E00E947700B3
S11304F041E060E081E00E94770041E061E081E05A
S11305000E94770041E062E081E00E94770041E0D0
S113051064E081E00E9477008FE99FE00197F1F7A2
S113052000C0000088E20E94EF018FE99FE001977C
S1130530F1F700C0000081E00E94EF018FE99FE025
S11305400197F1F700C000008CE00E94EF018FE9F1
S11305509FE00197F1F700C0000008950E94F403A2
S11305600E940504FDCF0E94EB018CEE8DB9089525
S11305700E94B3028DB18F7E8DB940E064E081E0CA
S11305800E94770040E065E081E00E94770041E04E
S113059066E081E00E94770040E067E081E00E942D
S11305A0770008958FB9779BFECF8FE39FE1019782
S11305B0F1F700C000008FB10895FC019FB19923A9
S11305C021F090831FB881E0089580E0089590930E
S11305D061008093600008951F920F920FB60F92EE
S11305E011242F933F934F935F936F937F938F9334
S11305F09F93AF93BF93EF93FF93E0916000F091CB
S11306006100309709F00995FF91EF91BF91AF9187
S11306109F918F917F916F915F914F913F912F9116
S11306200F900FBE0F901F9018951F920F920FB648
S11306300F9211248F939F93809162009091630095
S1130640019690936300809362004F9741F49BB3AB
S113065080E289278BBB10926300109262009F9105
S11306608F910F900FBE0F901F9018951F920F92AD
S11306700FB60F9211242F933F934F935F936F9371
S11306807F938F939F93AF93BF93EF93FF93E091E7
S11306906400F0916500309709F00995FF91EF919E
S11306A0BF91AF919F918F917F916F915F914F9186
S11306B03F912F910F900FBE0F901F9018958CE0D3
S11306C080B981B18E7F81B981B18D7F81B908955F
S11306D0CF93C82F86B7806486BF0E945F03CC2364
S11306E011F0CC0FC2B986B7846086BFCF9108954C
S11306F086B7806286BF86B7806886BF06B607FE67
S1130700FDCF81B1887F883011F480E0089581E0C5
S1130710089586B7806286BF86B7806886BF06B6AE
S113072007FEFDCF81B1887F803111F480E0089508
S113073082E00895880F83B983B18E7F83B986B729
S11307408F7D86BF86B7806886BF06B607FEFDCF5D
S113075081B1887F883111F480E0089583E00895A1
S1130760880F83B983B1816083B986B78F7D86BFD3
S113077086B7806886BF06B607FEFDCF81B1887F45
S1130780803411F480E0089584E0089583B986B735
S1130790806886BF06B607FEFDCF81B1887F8832A8
S11307A011F480E0089585E00895FC0196B79068FF
S11307B096BF06B607FEFDCF83B1808380E008951F
S11307C086B7806186BF86B7806886BF089589E64C
S11307D090E00E94DD02813019F4109266000895C1
S11307E081E08093660008950E946E028FB780684E
S11307F08FBF0E94B8020E945F0380E00E946803DA
S113080087EE93E00E94E7020895809166008130AC
S113081099F46091690085E090E00E948D0185E083
S113082090E00E94BD018093690082E0809366009D
S1130830809169000E94D2020895AA1BBB1B51E15A
S113084007C0AA1FBB1FA617B70710F0A61BB70B3C
S1130850881F991F5A95A9F780959095BC01CD01E1
S10908600895F894FFCF97
S9030000FC
