:100000000C942A000C9447000C9447000C94470071
:100010000C9447000C947E030C9447000C9447000A
:100020000C9447000C9447000C9447000C945D031B
:100030000C9434030C9447000C9447000C94470034
:100040000C9476000C9447000C9447000C944700E5
:100050000C94470011241FBECFE5D8E0DEBFCDBF12
:1000600010E0A0E6B0E0ECE9F7E002C005900D92E8
:10007000A036B107D9F720E0A0E6B0E001C01D929C
:10008000A836B207E1F70E94F9020C94CC030C9455
:100090000000833038F5813089F048F08230A1F4D7
:1000A00087B1806487B987B1806887B90DC087B18F
:1000B0008F7B87B987B18F7787B906C087B1806496
:1000C00087B987B18F7787B986B1887F86B968305D
:1000D00058F4677086B1682B66B986B1806886B9B6
:1000E00082E0089580E0089581E008951F920F92C4
:1000F0000FB60F9211242F933F934F935F936F93FB
:100100007F938F939F93AF93BF9324B135B144E610
:10011000429FC001439F900D11246FEF73E00E9436
:10012000B8037093670060936600BF91AF919F9191
:100130008F917F916F915F914F913F912F910F9090
:100140000FBE0F901F901895823048F4811109C09E
:1001500041E066E082E00E94B30080E0089581E023
:10016000089581E00895853030F4693030F44330EB
:1001700030F490E005C091E003C091E001C091E04F
:1001800091117AC04423B9F1413009F070C0813037
:1001900089F028F08230C9F0833011F16AC08AB347
:1001A00021E030E002C0220F331F6A95E2F7282BCE
:1001B0002ABB62C087B321E030E002C0220F331FA8
:1001C0006A95E2F7282B27BB57C084B321E030E0C3
:1001D00002C0220F331F6A95E2F7282B24BB4CC0C4
:1001E00081B321E030E002C0220F331F6A95E2F7AD
:1001F000282B21BB41C0813099F028F08230E9F0F2
:10020000833041F138C02AB381E090E002C0880F0A
:10021000991F6A95E2F7809582238ABB91E02CC0F2
:1002200027B381E090E002C0880F991F6A95E2F73A
:100230008095822387BB91E01FC024B381E090E0CA
:1002400002C0880F991F6A95E2F78095822384BBCC
:1002500091E012C021B381E090E002C0880F991FA5
:100260006A95E2F78095822381BB91E005C091E019
:1002700003C091E001C091E0892F0895853030F4EA
:10028000693030F4433030F490E005C091E003C0B1
:1002900091E001C091E091117AC04423B9F141305D
:1002A00009F070C0813089F028F08230C9F08330C5
:1002B00011F16AC08BB321E030E002C0220F331F7E
:1002C0006A95E2F7282B2BBB62C088B321E030E0AF
:1002D00002C0220F331F6A95E2F7282B28BB57C0B4
:1002E00085B321E030E002C0220F331F6A95E2F7A8
:1002F000282B25BB4CC082B321E030E002C0220F86
:10030000331F6A95E2F7282B22BB41C0813099F058
:1003100028F08230E9F0833041F138C02BB381E01E
:1003200090E002C0880F991F6A95E2F780958223BA
:100330008BBB91E02CC028B381E090E002C0880F15
:10034000991F6A95E2F78095822388BB91E01FC0D0
:1003500025B381E090E002C0880F991F6A95E2F70B
:100360008095822385BB91E012C022B381E090E0AA
:1003700002C0880F991F6A95E2F78095822382BB9D
:1003800091E005C091E003C091E001C091E0892FA8
:100390000895853020F4693020F480E0089581E0EC
:1003A000089581E008958FB780688FBF089540E079
:1003B00067E083E00E94B30040E066E083E00E94D3
:1003C000B30040E065E083E00E94B30040E063E0FA
:1003D00083E00E94B30040E065E082E00E94B30049
:1003E00040E064E082E00E94B30040E063E082E02D
:1003F0000E94B30040E062E082E00E94B30065E04A
:1004000082E00E94C90164E082E00E94C90163E0C9
:1004100082E00E94C90162E082E00E94C901089561
:10042000CF93C82F40E063E080E00E943E018FE957
:100430009FE00197F1F700C00000C4FB442740F99A
:1004400060E081E00E943E01C5FB442740F961E085
:1004500081E00E943E01C6FB442740F962E081E052
:100460000E943E014C2F441F4427441F64E081E05A
:100470000E943E018FE99FE00197F1F700C0000064
:1004800041E062E080E00E943E018FE99FE0019739
:10049000F1F700C0000040E062E080E00E943E0111
:1004A0008FE99FE00197F1F700C000004C2F4170E9
:1004B00060E081E00E943E01C1FB442740F961E019
:1004C00081E00E943E01C2FB442740F962E081E0E6
:1004D0000E943E01C3FB442740F964E081E00E9492
:1004E0003E018FE99FE00197F1F700C0000041E075
:1004F00062E080E00E943E018FE99FE00197F1F702
:1005000000C0000040E062E080E00E943E018FE118
:100510009EE40197F1F700C00000CF91089541E0FB
:1005200063E080E00E94B30041E062E080E00E946E
:10053000B30041E060E081E00E94B30041E061E08F
:1005400081E00E94B30041E062E081E00E94B300DC
:1005500041E064E081E00E94B3008FE99FE00197F1
:10056000F1F700C0000088E20E9410028FE99FE0CE
:100570000197F1F700C0000081E00E9410028FE9AE
:100580009FE00197F1F700C000008CE00E9410028C
:100590008FE99FE00197F1F700C0000008958530D2
:1005A00020F58130A1F028F08230C1F0833041F095
:1005B0001EC041E064E080E00E94B30080E0089546
:1005C00041E067E081E00E94B30080E0089541E0EF
:1005D00065E080E00E94B30080E0089541E066E0BD
:1005E00080E00E94B30080E0089581E0089581E0FA
:1005F00008950E94D7010E94A70381E490E00E9421
:100600002603FBCF0E94D3018CEE8DB908950E9482
:1006100002038DB180618DB941E064E081E00E9408
:10062000B30040E064E081E00E943E0141E065E00B
:1006300081E00E94B30040E066E081E00E94B300E8
:1006400041E067E081E00E94B30008958FB9779B95
:10065000FECF2FEF81EE94E0215080409040E1F7F3
:1006600000C000008FB108951F920F920FB60F9235
:1006700011242F933F934F935F936F937F938F93A7
:100680009F93AF93BF93EF93FF93E0916000F0913E
:100690006100309709F00995FF91EF91BF91AF91FB
:1006A0009F918F917F916F915F914F913F912F918A
:1006B0000F900FBE0F901F9018951F920F920FB6BC
:1006C0000F9211248F939F93809162009091630009
:1006D000019690936300809362004F9741F49BB31F
:1006E00080E289278BBB10926300109262009F9179
:1006F0008F910F900FBE0F901F9018951F920F9221
:100700000FB60F9211242F933F934F935F936F93E4
:100710007F938F939F93AF93BF93EF93FF93E0915A
:100720006400F0916500309709F00995FF91EF9111
:10073000BF91AF919F918F917F916F915F914F91F9
:100740003F912F910F900FBE0F901F9018950E9410
:10075000070383E00E94CF0280E00E94A4000E9471
:100760008F020E94D70167E081E00E94490008954E
:10077000AA1BBB1B51E107C0AA1FBB1FA617B707C7
:1007800010F0A61BB70B881F991F5A95A9F78095E3
:0C0790009095BC01CD010895F894FFCFB6
:00000001FF
