S014000056656869636C655F636F6D6D2E7372656345
S11300000C942A000C9447000C9447000C9447006D
S11300100C9447000C941B050C9447000C94470067
S11300200C9447000C9447000C9447000C94FA0479
S11300300C94D1040C9447000C9447000C94470092
S11300400C948C000C9447000C9447000C944700CB
S11300500C94470011241FBECFE5D8E0DEBFCDBF0E
S113006011E0A0E6B0E0E6E6FEE002C005900D92E5
S1130070AA35B107D9F721E0AAE5B1E001C01D9284
S1130080A236B207E1F70E94C1040C9431070C9424
S11300900000833038F5813089F048F08230A1F4D3
S11300A087B1806487B987B1806887B90DC087B18B
S11300B08F7B87B987B18F7787B906C087B1806492
S11300C087B987B18F7787B986B1887F86B9683059
S11300D058F4677086B1682B66B986B1806886B9B2
S11300E082E0089580E0089581E00895789497B1BE
S11300F0907E97B9883070F497B1907E97B997B194
S1130100892B87B986B1806486B986B1886086B93F
S113011085E0089589E008951F920F920FB60F921B
S113012011242F933F934F935F936F937F938F93F8
S11301309F93AF93BF9324B135B144E6429FC0016E
S1130140439F900D11246FEF73E00E94FB067093A0
S1130150610160936001BF91AF919F918F917F91F5
S11301606F915F914F913F912F910F900FBE0F9020
S11301701F901895823048F4811109C041E066E06F
S113018082E00E94C90080E0089581E0089581E042
S11301900895853030F4693030F4433030F490E021
S11301A005C091E003C091E001C091E091117AC0D3
S11301B04423B9F1413009F070C0813089F028F04E
S11301C08230C9F0833011F16AC08AB321E030E093
S11301D002C0220F331F6A95E2F7282B2ABB62C0A4
S11301E087B321E030E002C0220F331F6A95E2F7A3
S11301F0282B27BB57C084B321E030E002C0220F74
S1130200331F6A95E2F7282B24BB4CC081B321E04D
S113021030E002C0220F331F6A95E2F7282B21BB7E
S113022041C0813099F028F08230E9F0833041F107
S113023038C02AB381E090E002C0880F991F6A9504
S1130240E2F7809582238ABB91E02CC027B381E03A
S113025090E002C0880F991F6A95E2F78095822387
S113026087BB91E01FC024B381E090E002C0880FF7
S1130270991F6A95E2F78095822384BB91E012C0AE
S113028021B381E090E002C0880F991F6A95E2F7DC
S11302908095822381BB91E005C091E003C091E089
S11302A001C091E0892F0895853030F4693030F42D
S11302B0433030F490E005C091E003C091E001C008
S11302C091E091117AC04423B9F1413009F070C032
S11302D0813089F028F08230C9F0833011F16AC08E
S11302E08BB321E030E002C0220F331F6A95E2F79E
S11302F0282B2BBB62C088B321E030E002C0220F60
S1130300331F6A95E2F7282B28BB57C085B321E039
S113031030E002C0220F331F6A95E2F7282B25BB79
S11303204CC082B321E030E002C0220F331F6A9533
S1130330E2F7282B22BB41C0813099F028F08230AB
S1130340E9F0833041F138C02BB381E090E002C082
S1130350880F991F6A95E2F7809582238BBB91E001
S11303602CC028B381E090E002C0880F991F6A95E1
S1130370E2F78095822388BB91E01FC025B381E01A
S113038090E002C0880F991F6A95E2F78095822356
S113039085BB91E012C022B381E090E002C0880FD7
S11303A0991F6A95E2F78095822382BB91E005C08C
S11303B091E003C091E001C091E0892F0895853058
S11303C020F4693020F490E003C091E001C091E092
S11303D0911135C0813089F028F08230C9F0833022
S11303E011F12CC029B330E002C0359527956A95E8
S11303F0E2F72170FA01208322C026B330E002C064
S1130400359527956A95E2F72170FA01208317C084
S113041023B330E002C0359527956A95E2F7217041
S1130420FA0120830CC020B330E002C03595279533
S11304306A95E2F72170FA01208301C091E0892FC7
S11304400895853020F4693020F480E0089581E037
S1130450089581E0089540E067E083E00E94C900C8
S113046040E066E083E00E94C90040E065E083E08C
S11304700E94C90040E063E083E00E94C90040E0BC
S113048065E082E00E94C90040E064E082E00E94EE
S1130490C90040E063E082E00E94C90040E062E0FD
S11304A082E00E94C90065E082E00E94210264E0CB
S11304B082E00E94210263E082E00E94210262E065
S11304C082E00E9421020895AF92BF92CF92DF9200
S11304D0EF92FF920F931F93CF93DF931F92CDB7A9
S11304E0DEB7B12C4AC0CB2CD12CF601ED59FF4F0D
S11304F0A08041E06A2D82E00E94C90040E06A2D9C
S113050082E00E94540110E030C0E12EF12CF7018A
S1130510E959FF4F0081AE014F5F5F4F602F83E0C9
S11305200E94DF01898181111FC007C0AE014F5FA6
S11305305F4F602F83E00E94DF0189818823B1F33C
S113054040E06A2D82E00E94C900C601880F991F0D
S1130550880F991F85599F4FFC01EE0DFF1D808167
S11305608093600080E00EC01F5F143070F240E0A2
S11305706A2D82E00E94C900B39483E08B1508F0D1
S1130580B2CF81E00F90DF91CF911F910F91FF9037
S1130590EF90DF90CF90BF90AF900895CF93C82F86
S11305A040E063E080E00E9454018FE99FE00197FE
S11305B0F1F700C00000C4FB442740F960E081E08B
S11305C00E945401C5FB442740F961E081E00E9488
S11305D05401C6FB442740F962E081E00E945401C3
S11305E04C2F441F4427441F64E081E00E945401BF
S11305F08FE99FE00197F1F700C0000041E062E05D
S113060080E00E9454018FE99FE00197F1F700C058
S1130610000040E062E080E00E9454018FE99FE026
S11306200197F1F700C000004C2F417060E081E0B9
S11306300E945401C1FB442740F961E081E00E941B
S11306405401C2FB442740F962E081E00E94540156
S1130650C3FB442740F964E081E00E9454018FE920
S11306609FE00197F1F700C0000041E062E080E004
S11306700E9454018FE99FE00197F1F700C0000048
S113068040E062E080E00E9454018FE19EE4019723
S1130690F1F700C00000CF91089541E063E080E0ED
S11306A00E94C90041E062E080E00E94C90041E08C
S11306B060E081E00E94C90041E061E081E00E94C5
S11306C0C90041E062E081E00E94C90041E064E0C9
S11306D081E00E94C9008FE99FE00197F1F700C013
S11306E0000088E20E94CE028FE99FE00197F1F7B3
S11306F000C0000081E00E94CE028FE99FE00197D4
S1130700F1F700C000008CE00E94CE028FE99FE068
S11307100197F1F700C000000895CF93C82F41E07E
S113072063E080E00E9454018FE99FE00197F1F7B4
S113073000C00000C4FB442740F960E081E00E944F
S11307405401C5FB442740F961E081E00E94540153
S1130750C6FB442740F962E081E00E9454014C2F1B
S1130760441F4427441F64E081E00E9454018FE940
S11307709FE00197F1F700C0000041E062E080E0F3
S11307800E9454018FE99FE00197F1F700C0000037
S113079040E062E080E00E9454018FE99FE001970D
S11307A0F1F700C000004C2F417060E081E00E942E
S11307B05401C1FB442740F961E081E00E945401E7
S11307C0C2FB442740F962E081E00E945401C3FB6C
S11307D0442740F964E081E00E9454018FE99FE0DE
S11307E00197F1F700C0000041E062E080E00E9460
S11307F054018FE99FE00197F1F700C0000040E049
S113080062E080E00E9454018FE19EE40197F1F7D9
S113081000C00000CF9108950F931F93CF938C01D4
S1130820C0E005C00E948D03CF5FC53138F4F801E4
S1130830EC0FF11D80818111F5CF01C081E0CF91D2
S11308401F910F910895CF93DF9300D000D0CDB7BF
S1130850DEB78530B0F46531B0F490E8998390EC5C
S11308609A8394E99B8394ED9C83E1E0F0E0EC0FA0
S1130870FD1FE80FF11D8081860F0E94CE0280E0EB
S113088003C082E001C083E00F900F900F900F909F
S1130890DF91CF91089581E00E94CE0208951F93C5
S11308A0CF93DF93CDB7DEB72A970FB6F894DEBFA8
S11308B00FBECDBF6115710581059105C1F480E3BB
S11308C00E948D032AC02AE030E040E050E00E94FC
S11308D00F07E1E0F0E0EC0FFD1FE10FF11D605D9B
S11308E060831F5F622F732F842F952F01C010E048
S11308F0611571058105910531F70DC0E12FF0E017
S1130900319781E090E08C0F9D1FE80FF91F8081E3
S11309100E948D0311501111F1CF2A960FB6F8944D
S1130920DEBF0FBECDBFDF91CF911F9108958530FB
S113093020F58130A1F028F08230C1F0833041F0FD
S11309401EC041E064E080E00E94C90080E0089598
S113095041E067E081E00E94C90080E0089541E041
S113096065E080E00E94C90080E0089541E066E00F
S113097080E00E94C90080E0089581E0089581E04C
S113098008950E9444050E94CB06FDCF8FB9779B42
S1130990FECF8FE39FE10197F1F700C000008FB114
S11309A008951F920F920FB60F9211242F933F9325
S11309B04F935F936F937F938F939F93AF93BF9363
S11309C0EF93FF93E0915A01F0915B01309709F0A6
S11309D00995FF91EF91BF91AF919F918F917F9175
S11309E06F915F914F913F912F910F900FBE0F9098
S11309F01F9018951F920F920FB60F9211248F9388
S1130A009F9380915C0190915D01019690935D01AB
S1130A1080935C014F9741F49BB380E289278BBBA1
S1130A2010925D0110925C019F918F910F900FBE07
S1130A300F901F9018951F920F920FB60F921124CA
S1130A402F933F934F935F936F937F938F939F93D2
S1130A50AF93BF93EF93FF93E0915E01F0915F0139
S1130A60309709F00995FF91EF91BF91AF919F9154
S1130A708F917F916F915F914F913F912F910F9043
S1130A800FBE0F901F90189583E00E94970480E09A
S1130A900E94BA000E944D030E942B0267E081E08D
S1130AA00E94490008950E944B0460E080E00E9487
S1130AB023048BE790E00E940C0460E081E00E9434
S1130AC0230480E990E00E940C0460E082E00E942C
S1130AD0230481EA90E00E940C0460E083E00E9419
S1130AE023048FEA90E00E940C0408950E944B04B2
S1130AF060E082E00E94230486EC90E00E940C04F3
S1130B006FE082E00E942304809161000E948D03C3
S1130B100E94640280916000803531F0843421F0B9
S1130B20823511F08E3451F4809361006FE082E0DD
S1130B300E942304809161000E948D0360E080E0A4
S1130B400E94230486ED90E00E940C0481E00E9440
S1130B507600809161008E3409F47DC018F48434E9
S1130B60A9F18AC0803509F464C0823509F084C0D3
S1130B7080916001909161014F9798F060E180E06D
S1130B800E9423048CE890E00E940C0460E180E061
S1130B900E9423046EE170E080E090E00E944F0424
S1130BA06BC060E180E00E9423048CE890E00E9426
S1130BB00C0460E180E00E94230460916001709164
S1130BC0610180E090E00E944F0456C08091620071
S1130BD090E0209160013091610182179307A0F4A5
S1130BE060E180E00E9423048CE890E00E940C0401
S1130BF060E180E00E9423046091620070E080E084
S1130C0090E00E944F0438C060E180E00E94230419
S1130C108CE890E00E940C0460E180E00E942304D0
S1130C20609160017091610180E090E00E944F0446
S1130C3023C060E180E00E9423048CE890E00E94DD
S1130C400C0460E180E00E94230460E070E0CB01CA
S1130C500E944F0411C060E180E00E9423048CE8EC
S1130C6090E00E940C0460E180E00E94230460E0B4
S1130C7070E0CB010E944F0480916000803309F042
S1130C8037CF089585E7809360000E944B0487EE78
S1130C9090E00E940C0460E081E00E94230488EF4D
S1130CA090E00E940C0460E082E00E94230483E050
S1130CB091E00E940C0460E083E00E9423048DE034
S1130CC091E00E940C040E9464028091600090ED07
S1130CD0980F9330C0F7813319F08233D9F0089517
S1130CE080E8809362000E944B048BE191E00E94B3
S1130CF00C046091620070E080E090E00E944F0478
S1130D002FEF8BE792E9215080409040E1F700C03B
S1130D10000008950E944B048BE191E00E940C04B2
S1130D206091620070E080E090E00E944F042FEF39
S1130D308BE792E9215080409040E1F700C0000029
S1130D4008950E944B0480E391E00E940C0481E02A
S1130D500E94760060E082E00E94230481E00E9409
S1130D60760060916001709161016093620080E09F
S1130D7090E00E944F0480916001909161010E9473
S1130D80C6042FEF87EA91E6215080409040E1F7B6
S1130D9000C00000089585E7809360000E94530519
S1130DA00E946402809160009FEC980F9330C0F71A
S1130DB0823339F0833341F08133E1F40E947605C4
S1130DC008950E944206089580916100843419F4C4
S1130DD00E94A10608950E944B0485E491E00E94BC
S1130DE00C042FEF87EA91E6215080409040E1F710
S1130DF000C000000895AA1BBB1B51E107C0AA1F35
S1130E00BB1FA617B70710F0A61BB70B881F991FA7
S1130E105A95A9F780959095BC01CD010895A1E25A
S1130E201A2EAA1BBB1BFD010DC0AA1FBB1FEE1F60
S1130E30FF1FA217B307E407F50720F0A21BB30BAB
S1130E40E40BF50B661F771F881F991F1A9469F727
S1130E5060957095809590959B01AC01BD01CF0183
S1090E600895F894FFCF91
S1130E667550320504030207060503313233503444
S1130E763536523738394E4030234420202020203E
S1130E864D61696E204D656E75202020202020005E
S1130E96312D52756E74696D652056616C75657376
S1130EA600322D4C696D6974205370656564003396
S1130EB62D536574205370656564204C696D69749F
S1130EC620202020200043757272656E74204765C9
S1130ED66172203D200043757272656E74205370F2
S1130EE6656564203D200043686F6F7365207468F0
S1130EF665204D6F64653A00313A20666F72204F63
S1130F06464600323A20666F72204F4E00303A2031
S1130F16746F20676F206261636B00596F7572206E
S1130F267370656564206C696D69742069733A0031
S1130F36546865206E6577207370656564206C69F6
S1130F466D69743A004368616E676520676561720E
S10D0F5620746F20442021210000C4
S9030000FC
