S01B000056656869636C655F636F6D6D5F4D61737465722E7372656373
S11300000C942A000C9447000C9447000C9447006D
S11300100C9447000C94DC040C9447000C944700A7
S11300200C9447000C9447000C9447000C94BB04B8
S11300300C9492040C9447000C9447000C944700D1
S11300400C9477000C9447000C9447000C944700E0
S11300500C94470011241FBECFE5D8E0DEBFCDBF0E
S113006011E0A0E6B0E0E4E6FDE002C005900D92E8
S1130070AE35B107D9F721E0AEE5B1E001C01D927C
S1130080A736B207E1F70E9465040C94B0060C94FD
S113009000008330B0F4813039F0823019F43E9A94
S11300A03F9A04C03E9801C03E9A3F9886B1887F2B
S11300B086B9683040F486B1682B66B9379A82E015
S11300C0089580E0089581E00895789497B1907E32
S11300D097B9883050F497B1907E97B997B1892B2E
S11300E087B9369A339A85E0089589E008951F9276
S11300F00F920FB60F9211242F933F934F935F9358
S11301006F937F938F939F93AF93BF9324B135B134
S113011044E6429FC001439F900D11246FEF73E0AA
S11301200E947A067093650160936401BF91AF9158
S11301309F918F917F916F915F914F913F912F91FB
S11301400F900FBE0F901F901895823048F48111C4
S113015007C041E066E082E00E94B20080E00895BA
S113016081E00895853098F4693088F4433078F458
S1130170411134C08130E1F060F42AB381E090E0B1
S113018001C0880F6A95EAF7809582238ABB81E0D3
S113019008958230C1F08330D1F721B381E090E03B
S11301A001C0880F6A95EAF78095822381BBEFCF5F
S11301B027B381E090E001C0880F6A95EAF7809543
S11301C0822387BBE4CF24B381E090E001C0880F91
S11301D06A95EAF78095822384BBD9CF4130B9F67A
S11301E08130C9F070F0823001F1833081F621B39F
S11301F081E090E001C0880F6A95EAF7822B81BB09
S11302001DC02AB381E090E001C0880F6A95EAF727
S1130210822B8ABB13C027B381E090E001C0880F12
S11302206A95EAF7822B87BB09C024B381E090E08A
S113023001C0880F6A95EAF7822B84BB80E0089599
S1130240853098F4693088F4433078F4411134C02F
S11302508130E1F060F42BB381E090E001C0880FBD
S11302606A95EAF7809582238BBB81E008958230FA
S1130270C1F08330D1F722B381E090E001C0880F50
S11302806A95EAF78095822382BBEFCF28B381E099
S113029090E001C0880F6A95EAF78095822388BBB5
S11302A0E4CF25B381E090E001C0880F6A95EAF7B6
S11302B08095822385BBD9CF4130B9F68130C9F00E
S11302C070F0823001F1833081F622B381E090E056
S11302D001C0880F6A95EAF7822B82BB1DC02BB33D
S11302E081E090E001C0880F6A95EAF7822B8BBB0E
S11302F013C028B381E090E001C0880F6A95EAF743
S1130300822B88BB09C025B381E090E001C0880F2F
S11303106A95EAF7822B85BB80E00895FA0185305F
S113032010F4693010F081E00895813011F486B33F
S113033003C0813058F489B390E002C09595879545
S11303406A95E2F78170808380E00895823011F429
S113035083B3F2CF833039F780B3EECF853028F4FE
S113036081E0693018F480E0089581E008958FB742
S113037080688FBF089540E067E083E00E94B20088
S113038040E066E083E00E94B20040E065E083E084
S11303900E94B20040E063E083E00E94B20040E0CB
S11303A065E082E00E94B20040E064E082E00E94E6
S11303B0B20040E063E082E00E94B20040E062E00C
S11303C082E00E94B20065E082E00E94AE0164E037
S11303D082E00E94AE0163E082E00E94AE0162E02E
S11303E082E00C94AE018F929F92AF92BF92CF9213
S11303F0DF92EF92FF920F931F93CF93DF931F929D
S1130400CDB7DEB727E6A22E20E0B22E00E010E042
S1130410F501F1905F0141E06F2D82E00E94B2008E
S113042040E06F2D82E00E9420019BE6892E90E03F
S1130430992EC12CD12CF401E1904F01AE014F5FF4
S11304405F4F6E2D83E00E948E01898181111EC051
S11304508981811108C0AE014F5F5F4F6E2D83E02B
S11304600E948E01F5CF40E06F2D82E00E94B20021
S1130470F801EE0FFF1FEE0FFF1FE159FF4FEC0DC8
S1130480FD1D80818093600080E013C0FFEFCF1AD0
S1130490DF0A84E0C816D10471F640E06F2D82E0D3
S11304A00E94B2000F5F1F4F0430110509F0B0CF56
S11304B081E00F90DF91CF911F910F91FF90EF900A
S11304C0DF90CF90BF90AF909F908F900895CF937F
S11304D0C82F40E063E080E00E9420018FE99FE0A4
S11304E00197F1F700C00000C4FB442740F960E025
S11304F081E00E942001C5FB442740F961E081E0CE
S11305000E942001C6FB442740F962E081E00E947A
S113051020014C2F441F4427441F64E081E00E94C3
S113052020018FE99FE00197F1F700C0000041E04E
S113053062E080E00E9420018FE99FE00197F1F7DB
S113054000C0000040E062E080E00E9420018FE9EA
S11305509FE00197F1F700C000004C2F417060E06C
S113056081E00E942001C1FB442740F961E081E061
S11305700E942001C2FB442740F962E081E00E940E
S11305802001C3FB442740F964E081E00E9420017C
S11305908FE99FE00197F1F700C0000041E062E0BD
S11305A080E00E9420018FE99FE00197F1F700C0ED
S11305B0000040E062E080E00E9420018FE19EE4C0
S11305C00197F1F700C00000CF91089541E063E086
S11305D080E00E94B20041E062E080E00E94B2004C
S11305E041E060E081E00E94B20041E061E081E02E
S11305F00E94B20041E062E081E00E94B20041E06A
S113060064E081E00E94B2008FE99FE00197F1F776
S113061000C0000088E20E9467028FE99FE0019712
S1130620F1F700C0000081E00E9467028FE99FE0BB
S11306300197F1F700C000008CE00E9467028FE987
S11306409FE00197F1F700C000000895CF93C82FF1
S113065041E063E080E00E9420018FE99FE0019780
S1130660F1F700C00000C4FB442740F960E081E0DA
S11306700E942001C5FB442740F961E081E00E940B
S11306802001C6FB442740F962E081E00E9420017A
S11306904C2F441F4427441F64E081E00E94200142
S11306A08FE99FE00197F1F700C0000041E062E0AC
S11306B080E00E9420018FE99FE00197F1F700C0DC
S11306C0000040E062E080E00E9420018FE99FE0AA
S11306D00197F1F700C000004C2F417060E081E009
S11306E00E942001C1FB442740F961E081E00E949F
S11306F02001C2FB442740F962E081E00E9420010E
S1130700C3FB442740F964E081E00E9420018FE9A3
S11307109FE00197F1F700C0000041E062E080E053
S11307200E9420018FE99FE00197F1F700C00000CB
S113073040E062E080E00E9420018FE19EE40197A6
S1130740F1F700C00000CF9108950F931F93CF934A
S1130750DF93EC018C010B5E1F4F8991882331F0EC
S11307600E942603C017D107C1F781E0DF91CF9122
S11307701F910F9108950F931F93CF93DF9300D090
S113078000D0CDB7DEB78530B8F46531B8F4009148
S11307906300109164002091650030916600098324
S11307A01A832B833C83FE01E80FF11D8181860FA0
S11307B00E94670280E003C082E001C083E00F90E2
S11307C00F900F900F90DF91CF911F910F9108958B
S11307D081E00C9467028F929F92AF92BF92EF9246
S11307E0FF921F93CF93DF93CDB7DEB72A970FB64F
S11307F0F894DEBF0FBECDBF61157105810591056B
S113080091F480E32A960FB6F894DEBF0FBECDBFF5
S1130810DF91CF911F91FF90EF90BF90AF909F9089
S11308208F900C94260310E03AE0832E912CA12C97
S1130830B12CEE24E394F12CEC0EFD1EE10EF11C20
S1130840A50194010E948E06605DF70160831F5F1D
S1130850B901CA01611571058105910551F711238B
S113086041F0FE01E10FF11D80810E942603115029
S1130870F6CF2A960FB6F894DEBF0FBECDBFDF9138
S1130880CF911F91FF90EF90BF90AF909F908F906A
S113089008958530C0F4813061F040F0823061F019
S11308A0833089F441E067E081E009C041E064E01D
S11308B005C041E065E002C041E066E080E00E94DE
S11308C0B20080E0089581E008950E94BB010E9477
S11308D005050E944F06FDCF0E94B7018CEE8DB92D
S11308E008950E946C046C9A41E064E081E00E94E7
S11308F0B20040E064E081E00E94200141E065E054
S113090081E00E94B20040E066E081E00E94B20013
S113091041E067E081E00C94B2008FB9779BFECF91
S11309208FB108951F920F920FB60F9211242F9337
S11309303F934F935F936F937F938F939F93AF9363
S1130940BF93EF93FF93E0915E01F0915F013097C5
S113095009F00995FF91EF91BF91AF919F918F910C
S11309607F916F915F914F913F912F910F900FBEA7
S11309700F901F9018951F920F920FB60F9211248B
S11309808F939F9380916001909161010196909360
S11309906101809360014F9741F49BB380E2892702
S11309A08BBB10926101109260019F918F910F9007
S11309B00FBE0F901F9018951F920F920FB60F92B3
S11309C011242F933F934F935F936F937F938F9350
S11309D09F93AF93BF93EF93FF93E0916201F091E4
S11309E06301309709F00995FF91EF91BF91AF91A1
S11309F09F918F917F916F915F914F913F912F9133
S1130A000F900FBE0F901F9018950E94710483E001
S1130A100E94490480E00E94A5000E94E6020E9410
S1130A20BB0167E081E00C9449000E94E80360E0A8
S1130A3080E00E94BB038FE790E00E94A50360E082
S1130A4081E00E94BB0384E990E00E94A50360E07A
S1130A5082E00E94BB0385EA90E00E94A50360E067
S1130A6083E00E94BB0383EB90E00C94A5030E94F7
S1130A70E80360E082E00E94BB038AEC90E00E94FD
S1130A80A5036FE082E00E94BB03809161000E9495
S1130A9026030E94F30180916000982F9D7F90357A
S1130AA021F0843411F08E3451F4809361006FE0AE
S1130AB082E00E94BB03809161000E94260360E0F3
S1130AC080E00E94BB038AED90E00E94A50381E0D0
S1130AD00E946500809161008E3409F44EC018F4C0
S1130AE0843479F15BC0803509F447C0823509F05C
S1130AF055C080916401909165014F9788F060E141
S1130B0080E00E94BB0380E990E00E94A50360E1BD
S1130B1080E00E94BB036EE170E080E090E03CC0A6
S1130B2060E180E00E94BB0380E990E00E94A5039D
S1130B3060E180E00E94BB036091640170916501F3
S1130B4019C08091620090E02091640130916501A8
S1130B508217930728F760E180E00E94BB0380E9D5
S1130B6090E00E94A50360E180E00E94BB036091D5
S1130B70620070E080E090E00FC060E180E00E94DD
S1130B80BB0380E990E00E94A50360E180E00E943D
S1130B90BB0360E070E0CB010E94EB038091600036
S1130BA0803309F066CF089585E7809360000E9442
S1130BB0E8038BEE90E00E94A50360E081E00E94D0
S1130BC0BB038CEF90E00E94A50360E082E00E94EA
S1130BD0BB0387E091E00E94A50360E083E00E94EC
S1130BE0BB0381E191E00E94A5030E94F30180917F
S1130BF0600090ED980F9330C0F7813319F0823381
S1130C0019F0089580E806C080E090E00E948D0409
S1130C1080936601809362000E94E8038FE191E073
S1130C200E94A5036091620070E080E090E00E9461
S1130C30EB032FEF8BE792E9215080409040E1F7DE
S1130C4000C0000008950E94E80384E391E00E943C
S1130C50A50381E00E94650060E082E00E94BB037E
S1130C6081E00E946500609164017091650180E0FB
S1130C7090E00E94EB0380916401909165010E94D1
S1130C808D0480916401809362002FEF87EA91E6DE
S1130C90215080409040E1F700C00000089585E7AE
S1130CA0809360000E9415050E94F301809160000A
S1130CB09FEC980F9330C0F7823321F0833321F0F7
S1130CC00C9437050C94D40580916100843411F49C
S1130CD00C9423060E94E80389E491E00E94A50392
S1130CE02FEF87EA91E6215080409040E1F700C061
S1130CF000000895AA1BBB1B51E107C0AA1FBB1F1C
S1130D00A617B70710F0A61BB70B881F991F5A9593
S1130D10A9F780959095BC01CD010895A1E21A2E02
S1130D20AA1BBB1BFD010DC0AA1FBB1FEE1FFF1F8B
S1130D30A217B307E407F50720F0A21BB30BE40BDB
S1130D40F50B661F771F881F991F1A9469F7609522
S1130D507095809590959B01AC01BD01CF010895DC
S1070D60F894FFCF31
S1130D6475503280C094D405040302070605033188
S1130D74323350343536523738394E4030234420D8
S1130D84202020204D61696E204D656E7520202041
S1130D9420202000312D52756E74696D65205661D2
S1130DA46C75657300322D4C696D697420537065DC
S1130DB4656400332D536574205370656564204C59
S1130DC4696D697420202020200043757272656E59
S1130DD4742047656172203D200043757272656E0C
S1130DE474205370656564203D200043686F6F73FD
S1130DF46520746865204D6F64653A00313A206655
S1130E046F72204F464600323A20666F72204F4E6E
S1130E1400303A20746F20676F206261636B00595D
S1130E246F7572207370656564206C696D697420D4
S1130E3469733A00546865206E657720737065653C
S1130E4464206C696D69743A004368616E67652057
S1110E546765617220746F2044202121000024
S9030000FC
