:100000000C942A000C9447000C9447000C94470071
:100010000C9447000C9436020C9447000C94470053
:100020000C9447000C9447000C9447000C94150264
:100030000C94EC010C9447000C9447000C9447007E
:100040000C9449000C9447000C9447000C94470012
:100050000C94470011241FBECFE5D8E0DEBFCDBF12
:1000600010E0A0E6B0E0E2E6F6E002C005900D92F6
:10007000A236B107D9F720E0A2E6B0E001C01D9298
:10008000AA36B207E1F70E94AF010C942F030C943B
:1000900000001F920F920FB60F9211242F933F93DF
:1000A0004F935F936F937F938F939F93AF93BF9380
:1000B00024B135B144E6429FC001439F900D112405
:1000C0006FEF73E00E941B037093690060936800F8
:1000D000BF91AF919F918F917F916F915F914F9160
:1000E0003F912F910F900FBE0F901F901895853064
:1000F00098F4693088F4433078F4411134C0813089
:10010000E1F060F42AB381E090E001C0880F6A95C5
:10011000EAF7809582238ABB81E008958230C1F09E
:100120008330D1F721B381E090E001C0880F6A9558
:10013000EAF78095822381BBEFCF27B381E090E07F
:1001400001C0880F6A95EAF78095822387BBE4CFC8
:1001500024B381E090E001C0880F6A95EAF78095AA
:10016000822384BBD9CF4130B9F68130C9F070F019
:10017000823001F1833081F621B381E090E001C04B
:10018000880F6A95EAF7822B81BB1DC02AB381E0F4
:1001900090E001C0880F6A95EAF7822B8ABB13C0F2
:1001A00027B381E090E001C0880F6A95EAF7822BBF
:1001B00087BB09C024B381E090E001C0880F6A9535
:1001C000EAF7822B84BB80E00895853010F4693013
:1001D00010F081E00895813051F428B381E090E07F
:1001E00001C0880F6A95EAF7822788BB0BC081306F
:1001F00058F42BB381E090E001C0880F6A95EAF7CC
:1002000082278BBB80E00895823051F425B381E0D2
:1002100090E001C0880F6A95EAF7822785BBF2CF8C
:100220008330B9F622B381E090E001C0880F6A956F
:10023000EAF7822782BBE6CF1F93CF93DF93D82FB5
:10024000192FC62F0E947402811112C0812F806560
:100250000E94950281110EC08D2F0E94BD02811156
:100260000BC08C2F0E94BD02882341F0C4E107C05F
:10027000C1E105C0C2E103C0C3E101C0C0E00E940A
:10028000D7028FE39CE90197F1F700C000008C2FA3
:10029000DF91CF911F9108950F931F93CF93DF9319
:1002A0001F92CDB7DEB78C010E947402811118C075
:1002B0001065812F0E949502811112C0802F0E942B
:1002C000BD0281110DC00E948402811109C0812FDD
:1002D0000E94A902811104C0CE0101960E94CC02A5
:1002E0000E94D70289810F90DF91CF911F910F91CA
:1002F00008958FB780688FBF08958530C0F481302E
:1003000061F040F0823061F0833089F441E067E0D1
:1003100081E009C041E064E005C041E065E002C061
:1003200041E066E080E00E94770080E0089581E08F
:100330000895813051F038F0823049F0833069F40B
:1003400067E081E006C064E003C065E001C066E0EC
:1003500080E00E94E50080E0089581E008950E9419
:10036000ED020E940103FDCF0E9479018CEE8DB950
:1003700008950E94B4016C9840E064E081E00E941E
:10038000770040E065E081E00E94770041E066E0B0
:1003900081E00E94770040E067E081E00C94770004
:1003A0008FB9779BFECF8FE39FE10197F1F700C0F4
:1003B00000008FB108952FB1FC01211104C080818C
:1003C0008FB980E0089520831FB881E0089590934D
:1003D00063008093620008951F920F920FB60F92F0
:1003E00011242F933F934F935F936F937F938F933A
:1003F0009F93AF93BF93EF93FF93E0916200F091CF
:100400006300309709F00995FF91EF91BF91AF918B
:100410009F918F917F916F915F914F913F912F911C
:100420000F900FBE0F901F9018951F920F920FB64E
:100430000F9211248F939F93809164009091650097
:10044000019690936500809364004F9741F49BB3AD
:1004500080E289278BBB10926500109264009F9107
:100460008F910F900FBE0F901F9018951F920F92B3
:100470000FB60F9211242F933F934F935F936F9377
:100480007F938F939F93AF93BF93EF93FF93E091ED
:100490006600F0916700309709F00995FF91EF91A0
:1004A000BF91AF919F918F917F916F915F914F918C
:1004B0003F912F910F900FBE0F901F9018958CE0D9
:1004C00080B9089809980895CF93C82F86B780649B
:1004D00086BF0E945F02CC2311F0CC0FC2B986B751
:1004E000846086BFCF91089586B7806286BF86B745
:1004F000806886BF06B607FEFDCF91B1987F81E088
:10050000983009F480E0089586B7806286BF86B788
:10051000806886BF06B607FEFDCF81B1887F803137
:1005200011F082E0089580E00895880F83B918984B
:1005300086B78F7D86BF86B7806886BF06B607FE02
:10054000FDCF81B1887F883111F083E0089580E08C
:100550000895880F83B9189A86B78F7D86BF86B7AE
:10056000806886BF06B607FEFDCF81B1887F8034E4
:1005700011F084E0089580E0089583B986B780681B
:1005800086BF06B607FEFDCF81B1887F883211F0A5
:1005900085E0089580E00895FC0196B7906896BFC5
:1005A00006B607FEFDCF83B1808380E0089586B74D
:1005B000806186BF86B7806886BF089581E690E037
:1005C0000E94DB01813021F41092600082E003C0C0
:1005D00081E0809360000C9499018FB780688FBF91
:1005E0000E94B9010E945F0280E00E9464028EEDC9
:1005F00092E00E94E70182E00E947D0181E00C947C
:100600007D0180916000811113C06091610085E0DF
:1006100090E00E941C0185E090E00E944C018093D4
:10062000610082E080936000809161000C94D001B1
:10063000809160000895AA1BBB1B51E107C0AA1F4F
:10064000BB1FA617B70710F0A61BB70B881F991F73
:100650005A95A9F780959095BC01CD010895F8941D
:02066000FFCFCA
:02066200020193
:00000001FF
